:020000040800F2
:10000000500400209D010008A5010008A701000878
:10001000A9010008AB010008AD01000800000000C4
:100020000000000000000000000000003F12000877
:10003000B1010008000000003D1200084112000854
:10004000B7010008B7010008B7010008B7010008B0
:10005000B7010008B7010008B7010008B7010008A0
:10006000B7010008B7010008B7010008B701000890
:10007000B7010008B7010008B7010008B701000880
:10008000B7010008B7010008B7010008B701000870
:10009000B7010008B7010008B7010008B701000860
:1000A000B7010008B7010008B7010008B701000850
:1000B000B70100080000000000000000B7010008C0
:1000C000B7010008B7010008B701000800000000F0
:1000D000B7010008B7010008B7010008B701000820
:1000E000B7010008B7010008B701000800000000D0
:1000F0000000000000000000000000000000000000
:10010000000000000000000000000000B70100082F
:100110000000000000000000B7010008000000001F
:1001200000000000000000000000000000000000CF
:1001300000000000000000000000000000000000BF
:10014000B7010008B701000800000000000000002F
:10015000000000000000000000000000000000009F
:10016000B7010008B7010008B7010008B70100088F
:10017000B7010008000000000000000000000000BF
:1001800000000000B7010008DFF80CD000F018F8FC
:100190000048004795160008500400200648804794
:1001A00006480047FEE7FEE7FEE7FEE7FEE7FEE75C
:1001B000FEE7FEE7FEE7FEE7BD1200088901000842
:1001C000064C074D06E0E06840F0010394E80700A4
:1001D00098471034AC42F6D3FFF7DAFF081700084F
:1001E000281700082DE9F84FDFF860B100234FF021
:1001F000010C4FF0030A4FF00F090BF1040E9DE0C4
:100200000CFA03F6344022007ED04C68022C01D058
:10021000122C0ED1DC0800EB8408D8F820405D07D2
:10022000EF0E09FA07F5AC430D69BD402543C8F848
:10023000205007685D0091F804800AFA05F408F080
:100240000308A74308FA05F848EA0708C0F8008041
:100250004F68012F05D0022F03D0112F01D0122F8C
:1002600011D18768D1F80C80A74308FA05F848EA4D
:100270000708C0F808804768B7430E79C6F3001630
:100280009E403E434660C668A6438C68AC403443FB
:10029000C4604C68E40050D52D4CA56945F00105BB
:1002A000A561A46923F0030504F001040094294C1E
:1002B0002E19B4689D072F0F09FA07F5AC43B0F16A
:1002C000904F04D0244DA84203D101250CE0002515
:1002D0000AE0224DA84201D1022505E0204DA842A6
:1002E00001D1032500E00525BD402543B560DBF8BD
:1002F00000405D464E689443F60300D514432C60DD
:100300007546DEF8004000E017E04E689443B603FF
:1003100000D514432C600D4D08352C684E6894436D
:10032000F60200D514432C60084D0C352C684E683D
:100330009443B60200D514432C605B1C0A68144633
:10034000DA407FF45DAFBDE8F88F000000040140A3
:10035000001002400000014000040048000800486E
:10036000000C004801488068704700000000002031
:1003700002488168027811448160704700000020C3
:10038000074810B5016841F010010160032000F03A
:1003900089F8002000F006F800F024F8002010BDD5
:1003A0000020024070B50D4D04464FF47A71287854
:1003B000B1FBF0F00A490968B1FBF0F000F05DFD17
:1003C00048B9102C07D200222146501E00F04AF8EE
:1003D00000206C6070BD012070BD00000000002096
:1003E0000C0000201E4808B5816941F001018161BF
:1003F000816901F001010091C16941F08051C16141
:10040000C06900F080500090072000F04BF80022F7
:1004100011466FF00B0000F025F8002211466FF036
:100420000A0000F01FF8002211466FF0090000F0EA
:1004300019F800221146501F00F014F8002211464E
:10044000101F00F00FF800221146901E00F00AF86D
:100450000022BDE808401146501E00F003B800001D
:1004600000100240F0B40E4B1B680C46C3F302238D
:10047000C3F10705042D00D90425191D072901D250
:10048000002300E0DB1E012606FA05F1491E21408B
:1004900099409E40761E16403143F0BC00F0BEBE2F
:1004A0000CED00E0064900F0070208684FF6FF0374
:1004B000184040EA0220034A1043086070470000D9
:1004C0000CED00E00000FA052DE9F84F0546006844
:1004D000774CC0036FD5E0690026C00008D4E069FE
:1004E00040F08050E061E069012600F0805000900B
:1004F00070480168C90512D40168804641F48071D2
:100500000160FFF72FFF074605E000BFFFF72AFF56
:10051000C01B642835D8D8F80000C005F6D5206A7D
:1005200010F4407053D0A98801F4407181424ED03C
:10053000206A4FF4803191FAA1F2B2FA82F2970068
:100540005D4A4FF00108174420F44070C7F800845A
:1005500091FAA1F1B1FA81F102EB81010023C1F816
:1005600000342062C00732D0FFF7FCFE074641F29C
:10057000883A4FF0020907E0FFF7F4FEC11B51452E
:1005800002D90320BDE8F88F99FAA9F1B1FA81F1F7
:1005900041F040014846B8EB511F01D121680CE001
:1005A00090FAA0F1B1FA81F141F04001B0EB511F96
:1005B00002D1216A01E015E0616A99FAA9F0B0FA66
:1005C00080F000F01F0008FA00F21142D4D0206A37
:1005D000696820F44070084320621EB1E06920F091
:1005E0008050E0612878C00705D0206BA96820F012
:1005F0000300084320632878800605D5206BE9684E
:1006000020F01000084320632868800305D5606847
:10061000296B20F48000084360602878400605D5E7
:10062000206B296920F020000843206328880004FB
:1006300005D5206B696920F04000084320632888B5
:10064000800505D56068E96920F400000843606012
:100650002878000605D5E06AA96920F4F8700843F7
:10066000E0622888C00405D5206B296A20F48070D8
:10067000084320632868400305D5206B696A20F48D
:100680008060084320632868000305D5206BA96AB1
:1006900020F40060084320632868C00205D5206B61
:1006A000E96A20F400500843206300206AE7000054
:1006B0000010024000700040000042422DE9F04767
:1006C000DFF8708105460E46D8F8000000F00700FC
:1006D000B0420CD2D8F8001021F007013143C8F81D
:1006E0000010D8F8000000F00700B04277D1287859
:1006F000514C800705D56068A96820F0F0000843D8
:1007000060602878C00759D06968012001290DD0A0
:10071000022929D05FF0020393FAA3F2B2FA82F21F
:1007200042F02002520904D0226803E04FF4003363
:10073000F2E7626A93FAA3F3B3FA83F303F01F03B9
:10074000984002424BD0606820F00300084360608C
:10075000FFF708FE6968074641F2883001290DD08D
:100760000229814617D025E04FF00073D4E700BF7F
:10077000FFF7F8FDC11B494501D918E081466068C3
:10078000C0F381000128F3D118E000BFFFF7EAFDB4
:10079000C11B49450BD86068C0F381000228F5D120
:1007A0000CE000BFFFF7DEFDC11B494502D9032065
:1007B000BDE8F087606810F00C0FF3D1D8F8001096
:1007C000404601F00701B1420BD9016821F0070151
:1007D00031430160006800F00700B04201D0012001
:1007E000E6E72878400705D56068E96820F4E0600E
:1007F000084360602878000706D56068296920F4FE
:10080000605040EAC100606000F022F86168F022A8
:1008100092FAA2F201F0F001B2FA82F2D140074A54
:10082000515CC840064908600020FFF7BBFD00206E
:10083000BEE700000020024000100240F816000849
:100840000C00002001480068704700000C000020E8
:10085000144B10B55A68144802F00C0104291DD03D
:1008600008291BD14FF4701494FAA4F402F4701107
:10087000B4FA84F4E1400D4CDB6A615C0F2494FA15
:10088000A4F403F00F03B4FA84F4E340074C1034EB
:10089000D203E35C03D5B0FBF3F0484310BD04483A
:1008A000484310BD0010024000127A00D81600081C
:1008B00000093D002DE9F84F05460078F74EC007C6
:1008C0004FF0010425D070686704C0F3810001284F
:1008D00007D07068C0F3810002281BD17068C00384
:1008E00018D597FAA7F0B0FA80F040F02000400940
:1008F00001D0306800E0706A97FAA7F1B1FA81F18F
:1009000001F01F0104FA01F1084264D06868002870
:100910007DD060E06868B0F5803F0BD010B1B0F5D5
:10092000A02F17D0306820F480303060306820F479
:10093000802002E0306840F480303060F06AA968BE
:1009400020F00F000843F062686828B3FFF70AFD43
:1009500080460BE0306840F480203060EAE700BF5A
:10096000FFF700FDA0EB0800642871D897FAA7F004
:10097000B0FA80F040F02000400901D0306800E07B
:10098000706A97FAA7F1B1FA81F101F01F0104FA38
:1009900001F10842E4D01EE0FFF7E4FC804605E0E8
:1009A000FFF7E0FCA0EB08006428DED897FAA7F078
:1009B000B0FA80F040F02000400901D0306800E03B
:1009C000706A97FAA7F1B1FA81F101F01F0104FAF8
:1009D00001F10842E4D12878DFF8C48280074FF0A3
:1009E000000A4FF0020732D570684FF0F80B10F094
:1009F0000C0F07D07068C0F38100022829D17068FD
:100A0000C00326D497FAA7F0B0FA80F000E08BE09C
:100A100040F02000400901D0306800E0706A97FA89
:100A2000A7F1B1FA81F101F01F0104FA01F10842C6
:100A300002D02869012877D130689BFAABF2696946
:100A4000B2FA82F220F0F8009140084330605AE098
:100A500064E1286988B394FAA4F0B0FA80F048F809
:100A60002040FFF77FFC814606E000BFFFF77AFCDD
:100A7000A0EB0900022898D897FAA7F0B0FA80F006
:100A800040F02000400901D0306800E0706A97FA19
:100A9000A7F1B1FA81F101F01F0104FA01F1084256
:100AA000E4D030689BFAABF220F0F8016869B2FA42
:100AB00082F290400143316025E0FFE794FAA4F10F
:100AC000B1FA81F148F821A0FFF74CFC814605E01E
:100AD000FFF748FCA0EB09000228CCD897FAA7F052
:100AE000B0FA80F040F02000400901D0306800E00A
:100AF000706A97FAA7F1B1FA81F101F01F0104FAC7
:100B000001F10842E4D1287800076CD5A869A8B3A0
:100B100094FAA4F0B0FA80F008EB8000C0F88044AA
:100B2000FFF720FC814607E08AE100BFFFF71AFCCF
:100B3000A0EB090002289ED897FAA7F0B0FA80F03F
:100B400040F06000B4EB501F01D130680BE097FA21
:100B5000A7F0B0FA80F040F06000B7EB501F01D171
:100B6000306A00E0706A97FAA7F1B1FA81F101F0FA
:100B70001F0104FA01F21042D8D034E0FFE794FAE2
:100B8000A4F1B1FA81F108EB8101C1F880A4FFF76B
:100B9000E9FB814606E000BFFFF7E4FBA0EB09009C
:100BA00002289AD897FAA7F0B0FA80F040F06000D7
:100BB000B4EB501F01D130680BE097FAA7F0B0FA00
:100BC00080F040F06000B7EB501F01D1306A00E0C8
:100BD000706A97FAA7F1B1FA81F101F01F0104FAE6
:100BE00001F21042D8D12878400774D5F0694FF04F
:100BF0000009C00009D4F06940F08050F061F0694C
:100C00004FF0010900F08050009026480168C905A6
:100C100012D4016841F480710160FFF7A3FB8346A1
:100C200006E000BFFFF79EFBA0EB0B00642875D821
:100C30001C480068C005F5D5E86801280AD008B14D
:100C4000052811D0306A20F001003062306A20F0AF
:100C5000040002E0306A40F001003062E868E0B170
:100C6000FFF780FB83460DE0306A40F004003062FD
:100C7000F0E700BFFFF776FBA0EB0B0141F28830F5
:100C800081424BD897FAA7F0B0FA80F040F04000CC
:100C9000B4EB501F08D1306812E01DE00010024094
:100CA000000042420070004097FAA7F0B0FA80F0CE
:100CB00040F04000B7EB501F01D1306A00E0706A8D
:100CC00097FAA7F1B1FA81F101F01F0104FA01F2DC
:100CD0001042CFD02EE034E0FFF744FB834607E01C
:100CE000FFF740FBA0EB0B0141F28830814215D8A1
:100CF00097FAA7F0B0FA80F040F04000B4EB501F34
:100D000001D130680CE097FAA7F0B0FA80F040F01B
:100D10004000B7EB501F02D1306A01E083E0706AF7
:100D200097FAA7F1B1FA81F101F01F0104FA01F27B
:100D30001042D5D1B9F1000F03D0F06920F08050F6
:100D4000F061E86980B37168C1F38101022977D04D
:100D50004FF080714F00022809D091FAA1F0B0FA4B
:100D600080F048F820A0FFF7FDFA05465EE08946CE
:100D700091FAA1F15046B1FA81F1C24648F821003A
:100D8000FFF7F0FA804605E0FFF7ECFAA0EB080069
:100D9000022848D897FAA7F0B0FA80F040F0200077
:100DA000400902D0306801E056E0706A97FAA7F176
:100DB000B1FA81F101F01F0104FA01F10842E3D117
:100DC000D5E908100843716821F474110843706074
:100DD00099FAA9F0B0FA80F04AF82040FFF7C2FA79
:100DE000054604E0FFF7BEFA401B02281BD897FA1D
:100DF000A7F0B0FA80F040F02000400901D0306840
:100E000000E0706A97FAA7F1B1FA81F101F01F01D1
:100E100004FA01F10842E5D01EE000BFFFF7A2FA94
:100E2000401B022802D90320BDE8F88F97FAA7F0EB
:100E3000B0FA80F040F02000400902D0306801E0B4
:100E40000CE0706A97FAA7F1B1FA81F101F01F0185
:100E500004FA01F10842E1D10020E5E70120E3E7CF
:100E60004FF0E0210428086903D020F00400086155
:100E7000704740F00400FAE7704710B5401EB0F12B
:100E8000807F01D3012010BD4FF0E02460610F216D
:100E9000601700F0C3F90020A06107202061002046
:100EA00010BD10B5FFF7E8FF10BD000030B590F899
:100EB0003C20012A3AD0012280F83C20CA688C6884
:100EC00022F4407222434C6822F4806222430C6870
:100ED00022F4006222430C6922F4805222434C69BE
:100EE00022F4005222438C6A22F48042224322F4EC
:100EF000004222430C8B22F4702242EA04420C4D41
:100F000004680023AC420CD18D8C22F4700242EABA
:100F10000552CD6922F080722A43096A22F00072DC
:100F20000A43626480F83C30002030BD022030BDAE
:100F3000002C014030B590F83C20012A1CD0012241
:100F400080F83C2003685A689C680C4DAB4203D182
:100F500022F470054A682A4322F070050A688968FD
:100F60002A4324F0800421435A60026891600021E2
:100F700080F83C10084630BD022030BD002C0140F6
:100F800000B50068094985B088420DD1022140149E
:100F9000CDE9000100200290032003900620049078
:100FA00069460348FFF71EF905B000BD002C01405B
:100FB0000004004870B5044690F83C000D46012836
:100FC0000ED0012684F83C60022084F83D000C2AF3
:100FD00045D007DC5AB1042A1BD0082A78D12CE06E
:100FE000022070BD102A4ED0142A71D15DE0206815
:100FF00000F0E0F92068816941F008018161206812
:10100000816921F004018161206881692A691143A5
:1010100011E0206800F012FA2068816941F4006153
:1010200081612068816921F4806181612068816922
:101030002A6941EA022181614AE0206800F03EFA13
:101040002068C16941F00801C1612068C16921F0CF
:101050000401C1612068C1692A69114311E0206857
:1010600000F06CFA2068C16941F40061C161206838
:10107000C16921F48061C1612068C1692A6941EABE
:101080000221C16124E0206800F08EFA2068416DE1
:1010900041F0080141652068416D21F0040141657E
:1010A0002068416D2A69114311E0206800F0AEFA12
:1010B0002068416D41F4006141652068416D21F473
:1010C000806141652068416D2A6941EA02214165DC
:1010D00084F83D60002084F83C0070BD10B5040029
:1010E00003D094F83D0010B107E0012010BD0020AE
:1010F00084F83C00204600F00DF8022084F83D0002
:10110000211D206800F00EF9012084F83D00002028
:1011100010BD000008B500680649884208D106489D
:10112000816941F400618161806900F40060009090
:1011300008BD0000002C01400010024010B504461C
:101140000068012200F02AF90B482168814208D08A
:101150000A48814205D00A48814202D009488142AA
:1011600003D1486C40F4004048642068016841F0B5
:1011700001010160002010BD002C01400040014031
:10118000004401400048014010B5234896B0214971
:1011900001604FF4FA510024C0E90114C910C0E9FC
:1011A000031444618461FFF799FF00B1FEE71294D4
:1011B000139412A918481494FFF7BCFE00B1FEE77F
:1011C00060200B90FA20CDE90C040E940F9410943B
:1011D00000220BA910481194FFF7ECFE00B1FEE7C6
:1011E00000944FF40050CDE904400194029403941C
:1011F00000030694CDE907400994694606480A941D
:10120000FFF754FE00B1FEE70348FFF7B9FE16B042
:1012100010BD0000002C0140100000200907090E3D
:10122000002806DA00F00F0000F1E02080F8141D1D
:10123000704700F1E02080F8001470477047704755
:1012400010B5FFF795F8BDE81040FFF72ABE10B5BE
:101250009CB00220009001200490102000240590F2
:1012600007946846FFF726FB00B1FEE70F20CDE9A3
:10127000170419941A94002117A81B94FFF71EFA5B
:1012800000B1FEE74FF480500A9012940AA8FFF7CD
:101290001BF900B1FEE7FFF7D5FA4FF47A71B0FB06
:1012A000F1F0FFF7EAFD0420FFF7DAFD0022114616
:1012B000501EFFF7D7F81CB010BD0000144801689D
:1012C00041F4700101601348016841F001010160BF
:1012D0004168114A114041600168104A11400160A3
:1012E000016821F480210160416821F4FE01416020
:1012F000C16A21F00F01C162016B094A114001630B
:10130000002181600249C0038039086070470000F5
:1013100088ED00E0001002400CC07FF8FFFFF6FEF1
:10132000CCFC00FFF0B50268184B4FF080479842A4
:1013300001D0B84203D122F070044A682243144C11
:10134000144D154E984207D0B84205D0A04203D0A4
:10135000A84201D0B04203D122F44077CA683A4390
:101360004F6922F080023A4302608A68C2620A68CA
:101370008262984205D0A04203D0A84201D0B04278
:1013800001D10969016301214161F0BD002C0140D7
:1013900000400140004401400048014010B50123D5
:1013A000046A8B409C430462036A8A4013430362CD
:1013B00010BD0000F0B5026A22F001020262056A67
:1013C00043688269184C25F0020522400C6822F01F
:1013D000030214438A68164E2A43144D154FDFF852
:1013E00058C0A84205D0B04203D0B84201D06045F1
:1013F00006D122F0080ECA6842EA0E0222F0040268
:10140000A84205D0B04203D0B84201D0604505D112
:101410004D6923F440731D438B692B434360846102
:10142000496841630262F0BD8FFFFEFF002C01405E
:1014300000400140004401400048014030B5026ACC
:1014400022F010020262046A42688369164D2B4042
:101450000D6823F4407343EA052524F020038C68CB
:1014600043EA0413114CA04207D1CC6823F0800357
:1014700043EA041323F0400308E00D4CA04205D0DA
:101480000C4CA04202D00C4CA04207D14C6922F473
:10149000406242EA84028C6942EA840242608561C9
:1014A00049688163036230BDFF8FFFFE002C01405D
:1014B00000400140004401400048014030B5026A4C
:1014C00022F480720262046A4268C369164D2B409E
:1014D0000D6823F003031D4324F400738C6843EA72
:1014E0000423124CA04207D1CC6823F4006343EAE2
:1014F000042323F4806308E00D4CA04205D00D4C7A
:10150000A04202D00C4CA04207D14C6922F44052B8
:1015100042EA04128C6942EA04124260C5614968D9
:10152000C163036230BD00008FFFFEFF002C01404D
:1015300000400140004401400048014030B5026ACB
:1015400022F480520262046A4268C369114D24F495
:1015500000542B400D6823F4407343EA05238D6843
:1015600044EA05340C4DA84208D00C4DA84205D0E1
:101570000B4DA84202D00B4DA84204D14D6922F474
:10158000804242EA85124260C36149680164046294
:1015900030BD0000FF8FFFFE002C014000400140E5
:1015A000004401400048014030B5026A22F4803214
:1015B0000262046A4268436D0F4D2B400D681D4363
:1015C00024F400330C8943EA04430C4CA04208D0B5
:1015D0000B4CA04205D00B4CA04202D00A4CA042BA
:1015E00004D14C6922F4803242EA0422426045650B
:1015F00049688165036230BD8FFFFEFF002C01400A
:1016000000400140004401400048014030B5026AFA
:1016100022F480120262046A4268436D104D24F481
:1016200000142B400D6843EA05230D8944EA055454
:101630000C4DA84208D00C4DA84205D00B4DA84235
:1016400002D00B4DA84204D14D6922F4802242EA17
:101650008522426043654968C165046230BD00006F
:10166000FF8FFFFE002C014000400140004401407C
:101670000048014002E008C8121F08C1002AFAD140
:1016800070477047002001E001C1121F002AFBD102
:101690007047000008B5FEF773FEFFF7D8FD0C4851
:1016A000416941F480014161416901F48001009187
:1016B000416941F480214161406900F4802000903B
:1016C000FFF762FD00210348FFF738FDFAE700004D
:1016D000001002401000002002030405060708095C
:1016E0000A0B0C0D0E0F101001020304050607086B
:1016F000090A0B0C0D0E0F10000000000000000086
:10170000010203040607080928170008000000204A
:1017100010000000741600083817000810000020A0
:1017200040040000841600080100000010000000C2
:081730000000000000127A0025
:040000050800018965
:00000001FF
