:020000040800F2
:10000000B00400209D010008A5010008A701000818
:10001000A9010008AB010008AD01000800000000C4
:10002000000000000000000000000000EB0F0008CE
:10003000B101000800000000E90F0008ED0F000802
:10004000B7010008B7010008B7010008B7010008B0
:10005000B7010008B7010008B7010008B7010008A0
:10006000B7010008B7010008B7010008B701000890
:10007000B7010008B7010008B7010008B701000880
:10008000B7010008B7010008B7010008B701000870
:10009000B7010008B7010008B7010008B701000860
:1000A000B7010008B7010008B7010008B701000850
:1000B000B70100080000000000000000B7010008C0
:1000C000B7010008B7010008B701000800000000F0
:1000D000B7010008B7010008B7010008B701000820
:1000E000B7010008B7010008B701000800000000D0
:1000F0000000000000000000000000000000000000
:10010000000000000000000000000000B70100082F
:100110000000000000000000B7010008000000001F
:1001200000000000000000000000000000000000CF
:1001300000000000000000000000000000000000BF
:10014000B7010008B701000800000000000000002F
:10015000000000000000000000000000000000009F
:10016000B7010008B7010008B7010008B70100088F
:10017000B7010008000000000000000000000000BF
:1001800000000000B7010008DFF80CD000F02EF8E6
:100190000048004749150008B00400200648804781
:1001A00006480047FEE7FEE7FEE7FEE7FEE7FEE75C
:1001B000FEE7FEE7FEE7FEE76110000889010008A0
:1001C00030B50B46014600202022012409E021FA27
:1001D00002F59D4205D303FA02F5491B04FA02F524
:1001E0002844151EA2F10102F1DC30BD064C074D7A
:1001F00006E0E06840F0010394E8070098471034F7
:10020000AC42F6D3FFF7C4FFE81500080816000853
:100210002DE9F84FDFF860B100234FF0010C4FF0EB
:10022000030A4FF00F090BF1040E9DE00CFA03F6E0
:10023000344022007ED04C68022C01D0122C0ED10A
:10024000DC0800EB8408D8F820405D07EF0E09FABF
:1002500007F5AC430D69BD402543C8F82050076839
:100260005D0091F804800AFA05F408F00308A7433A
:1002700008FA05F848EA0708C0F800804F68012F1F
:1002800005D0022F03D0112F01D0122F11D1876872
:10029000D1F80C80A74308FA05F848EA0708C0F827
:1002A00008804768B7430E79C6F300169E403E4368
:1002B0004660C668A6438C68AC403443C4604C6852
:1002C000E40050D52D4CA56945F00105A561A46950
:1002D00023F0030504F001040094294C2E19B4689E
:1002E0009D072F0F09FA07F5AC43B0F1904F04D0EA
:1002F000244DA84203D101250CE000250AE0224D3F
:10030000A84201D1022505E0204DA84201D10325D4
:1003100000E00525BD402543B560DBF800405D46A3
:100320004E689443F60300D514432C607546DEF8FE
:10033000004000E017E04E689443B60300D5144334
:100340002C600D4D08352C684E689443F60200D59C
:1003500014432C60084D0C352C684E689443B6024B
:1003600000D514432C605B1C0A681446DA407FF405
:100370005DAFBDE8F88F00000004014000100240AE
:10038000000001400004004800080048000C00483C
:100390000148806870470000000000200248816822
:1003A000027811448160704700000020074810B5B2
:1003B000016841F010010160032000F089F800207D
:1003C00000F006F800F024F8002010BD00200240E4
:1003D00070B50D4D04464FF47A712878B1FBF0F0FA
:1003E0000A490968B1FBF0F000F093FC48B9102C01
:1003F00007D200222146501E00F04AF800206C600F
:1004000070BD012070BD0000000000200C00002025
:100410001E4808B5816941F001018161816901F0DF
:1004200001010091C16941F08051C161C06900F0D2
:1004300080500090072000F04BF8002211466FF02A
:100440000B0000F025F8002211466FF00A0000F0C2
:100450001FF8002211466FF0090000F019F8002281
:100460001146501F00F014F800221146101F00F032
:100470000FF800221146901E00F00AF80022BDE895
:1004800008401146501E00F003B800000010024062
:10049000F0B40E4B1B680C46C3F30223C3F10705EF
:1004A000042D00D90425191D072901D2002300E0DD
:1004B000DB1E012606FA05F1491E214099409E40A7
:1004C000761E16403143F0BC00F07EBD0CED00E01E
:1004D000064900F0070208684FF6FF03184040EA9B
:1004E0000220034A10430860704700000CED00E052
:1004F0000000FA052DE9F047DFF8708105460E4649
:10050000D8F8000000F00700B0420CD2D8F8001074
:1005100021F007013143C8F80010D8F8000000F0BE
:100520000700B04277D12878514C800705D5606824
:10053000A96820F0F000084360602878C00759D00F
:100540006968012001290DD0022929D05FF002033A
:1005500093FAA3F2B2FA82F242F02002520904D0D6
:10056000226803E04FF40033F2E7626A93FAA3F3E0
:10057000B3FA83F303F01F03984002424BD0606844
:1005800020F0030008436060FFF702FF6968074638
:1005900041F2883001290DD00229814617D025E08B
:1005A0004FF00073D4E700BFFFF7F2FEC11B4945CF
:1005B00001D918E081466068C0F381000128F3D1B9
:1005C00018E000BFFFF7E4FEC11B49450BD8606887
:1005D000C0F381000228F5D10CE000BFFFF7D8FE80
:1005E000C11B494502D90320BDE8F087606810F0BF
:1005F0000C0FF3D1D8F80010404601F00701B142CA
:100600000BD9016821F0070131430160006800F057
:100610000700B04201D00120E6E72878400705D561
:100620006068E96820F4E0600843606028780007AB
:1006300006D56068296920F4605040EAC100606016
:1006400000F052F86168F02292FAA2F201F0F00193
:10065000B2FA82F2D140074A515CC84006490860AC
:100660000020FFF7B5FE0020BEE70000002002409A
:1006700000100240D01500080C000020014800685E
:10068000704700000C0000200848094900684968CC
:100690004FF4E06292FAA2F201F4E061B2FA82F25F
:1006A000D140044A515CC840704700000C00002053
:1006B00000100240E0150008084809490068496830
:1006C0004FF4605292FAA2F201F46051B2FA82F24F
:1006D000D140044A515CC840704700000C00002023
:1006E00000100240E0150008144B10B55A68144879
:1006F00002F00C0104291DD008291BD14FF47014FD
:1007000094FAA4F402F47011B4FA84F4E1400D4CAC
:10071000DB6A615C0F2494FAA4F403F00F03B4FACB
:1007200084F4E340074C1034D203E35C03D5B0FB00
:10073000F3F0484310BD0448484310BD0010024088
:1007400000127A00B015000800093D002DE9F84FAD
:1007500005460078F74EC0074FF0010425D07068B9
:100760006704C0F38100012807D07068C0F38100DE
:1007700002281BD17068C00318D597FAA7F0B0FA09
:1007800080F040F02000400901D0306800E0706A3D
:1007900097FAA7F1B1FA81F101F01F0104FA01F112
:1007A000084264D0686800287DD060E06868B0F5D1
:1007B000803F0BD010B1B0F5A02F17D0306820F4D7
:1007C00080303060306820F4802002E0306840F4EF
:1007D00080303060F06AA96820F00F000843F062B2
:1007E000686828B3FFF7D4FD80460BE0306840F41A
:1007F00080203060EAE700BFFFF7CAFDA0EB0800E9
:10080000642871D897FAA7F0B0FA80F040F0200081
:10081000400901D0306800E0706A97FAA7F1B1FA98
:1008200081F101F01F0104FA01F10842E4D01EE059
:10083000FFF7AEFD804605E0FFF7AAFDA0EB08003C
:100840006428DED897FAA7F0B0FA80F040F02000D4
:10085000400901D0306800E0706A97FAA7F1B1FA58
:1008600081F101F01F0104FA01F10842E4D1287876
:10087000DFF8C48280074FF0000A4FF0020732D53C
:1008800070684FF0F80B10F00C0F07D07068C0F3D1
:100890008100022829D17068C00326D497FAA7F0F6
:1008A000B0FA80F000E08BE040F02000400901D079
:1008B000306800E0706A97FAA7F1B1FA81F101F0AF
:1008C0001F0104FA01F1084202D02869012877D1FA
:1008D00030689BFAABF26969B2FA82F220F0F80054
:1008E0009140084330605AE064E1286988B394FA83
:1008F000A4F0B0FA80F048F82040FFF749FD8146A7
:1009000006E000BFFFF744FDA0EB0900022898D8DD
:1009100097FAA7F0B0FA80F040F02000400901D02B
:10092000306800E0706A97FAA7F1B1FA81F101F03E
:100930001F0104FA01F10842E4D030689BFAABF2DF
:1009400020F0F8016869B2FA82F290400143316008
:1009500025E0FFE794FAA4F1B1FA81F148F821A06B
:10096000FFF716FD814605E0FFF712FDA0EB090039
:100970000228CCD897FAA7F0B0FA80F040F0200017
:10098000400901D0306800E0706A97FAA7F1B1FA27
:1009900081F101F01F0104FA01F10842E4D1287845
:1009A00000076CD5A869A8B394FAA4F0B0FA80F057
:1009B00008EB8000C0F88044FFF7EAFC814607E0BE
:1009C0008AE100BFFFF7E4FCA0EB090002289ED8F3
:1009D00097FAA7F0B0FA80F040F06000B4EB501F37
:1009E00001D130680BE097FAA7F0B0FA80F040F040
:1009F0006000B7EB501F01D1306A00E0706A97FACF
:100A0000A7F1B1FA81F101F01F0104FA01F21042DD
:100A1000D8D034E0FFE794FAA4F1B1FA81F108EB01
:100A20008101C1F880A4FFF7B3FC814606E000BF56
:100A3000FFF7AEFCA0EB090002289AD897FAA7F0BE
:100A4000B0FA80F040F06000B4EB501F01D1306884
:100A50000BE097FAA7F0B0FA80F040F06000B7EB37
:100A6000501F01D1306A00E0706A97FAA7F1B1FA1D
:100A700081F101F01F0104FA01F21042D8D1287867
:100A8000400774D5F0694FF00009C00009D4F0693F
:100A900040F08050F061F0694FF0010900F08050A3
:100AA000009026480168C90512D4016841F480719C
:100AB0000160FFF76DFC834606E000BFFFF768FCAE
:100AC000A0EB0B00642875D81C480068C005F5D55C
:100AD000E86801280AD008B1052811D0306A20F052
:100AE00001003062306A20F0040002E0306A40F019
:100AF00001003062E868E0B1FFF74AFC83460DE090
:100B0000306A40F004003062F0E700BFFFF740FCBD
:100B1000A0EB0B0141F2883081424BD897FAA7F045
:100B2000B0FA80F040F04000B4EB501F08D13068BC
:100B300012E01DE000100240000042420070004040
:100B400097FAA7F0B0FA80F040F04000B7EB501FE2
:100B500001D1306A00E0706A97FAA7F1B1FA81F129
:100B600001F01F0104FA01F21042CFD02EE034E070
:100B7000FFF70EFC834607E0FFF70AFCA0EB0B0132
:100B800041F28830814215D897FAA7F0B0FA80F088
:100B900040F04000B4EB501F01D130680CE097FAF0
:100BA000A7F0B0FA80F040F04000B7EB501F02D140
:100BB000306A01E083E0706A97FAA7F1B1FA81F137
:100BC00001F01F0104FA01F21042D5D1B9F1000F72
:100BD00003D0F06920F08050F061E86980B371685B
:100BE000C1F38101022977D04FF080714F000228B4
:100BF00009D091FAA1F0B0FA80F048F820A0FFF7F0
:100C0000C7FB05465EE0894691FAA1F15046B1FA6C
:100C100081F1C24648F82100FFF7BAFB804605E0A3
:100C2000FFF7B6FBA0EB0800022848D897FAA7F018
:100C3000B0FA80F040F02000400902D0306801E0B6
:100C400056E0706A97FAA7F1B1FA81F101F01F013D
:100C500004FA01F10842E3D1D5E9081008437168AC
:100C600021F474110843706099FAA9F0B0FA80F089
:100C70004AF82040FFF78CFB054604E0FFF788FBAD
:100C8000401B02281BD897FAA7F0B0FA80F040F07A
:100C90002000400901D0306800E0706A97FAA7F19F
:100CA000B1FA81F101F01F0104FA01F10842E5D027
:100CB0001EE000BFFFF76CFB401B022802D9032097
:100CC000BDE8F88F97FAA7F0B0FA80F040F0200066
:100CD000400902D0306801E00CE0706A97FAA7F191
:100CE000B1FA81F101F01F0104FA01F10842E1D1EA
:100CF0000020E5E70120E3E74FF0E0210428086940
:100D000003D020F004000861704740F00400FAE7C7
:100D1000704710B5401EB0F1807F01D3012010BD97
:100D20004FF0E02460610F21601700F04DF90020C2
:100D3000A06107202061002010BD10B5FFF7E8FF7B
:100D400010BD10B5040003D094F8690010B107E09D
:100D5000012010BD002084F86800204600F026F82D
:100D6000242084F869002068016821F001010160F5
:100D7000204600F03BFA0128EBD0606A10B1204613
:100D800000F0A2F92068416821F490414160206898
:100D9000816821F02A0181602068016841F0010129
:100DA00001602046BDE8104000F0F2B900B50068CF
:100DB0000E4987B0884217D10D48C16941F400310E
:100DC000C161C069694600F4003005900C200090B4
:100DD000022001900020029003200390072004903D
:100DE0004FF09040FFF714FA07B000BD00440040F8
:100DF000001002402DE9F84F044690F86A009A4628
:100E000016460D46202866D1EDB1E6B194F868008B
:100E1000012860D0012084F868000027E7662220BE
:100E200084F86A004C34FFF7B3FAA6818146E68164
:100E300054F8440C4FF48058FF214C3C404508D1F5
:100E4000206918B10DE00120BDE8F88F40F2FF10D5
:100E50000DE07F2218B1B0F1805F05D009E0206974
:100E600050B9A4F85C1004E0206928B13F20A4F830
:100E70005C00B4F85C601DE0A4F85C20F9E700BFFA
:100E8000B4F85A00401EA4F85A004B460022202114
:100E90002046CDF800A000F04FFA08B10320D3E7B8
:100EA000A068404501D1206978B12068808C30402D
:100EB00005F8010BB4F85A000028E1D1202084F88D
:100EC0006A0084F868700020BEE72068808C30409B
:100ED00025F8020BEEE70220B6E72DE9F8430446B9
:100EE00090F869001F4616460D4620284DD1CDB119
:100EF000C6B194F86800012847D0012084F8680042
:100F00004FF00008C4F86C80212084F86900503448
:100F1000FFF73EFA24F8026B814624F852694FF439
:100F2000805618E00120BDE8F883B4F85200401E56
:100F3000A4F852004B46002280212046009700F082
:100F4000FBF9A0B9A068B04201D1206988B115F8B9
:100F5000010B21680885B4F852000028E5D14B4602
:100F6000002240212046009700F0E6F930B103202E
:100F7000D9E735F8020BC0F30800EAE7202084F82F
:100F8000690084F868800020CDE70220CBE70000EC
:100F90000C4810B50A4901604FF416514160002118
:100FA00081600C22C160C0E904128161C1610162EB
:100FB0004162FFF7C6FE002800D0FEE710BD00002A
:100FC000004400403C0000200907090E002806DA12
:100FD00000F00F0000F1E02080F8141D704700F1D0
:100FE000E02080F8001470477047704710B5FFF795
:100FF000D5F9BDE81040FFF7A0BE30B58FB002258F
:101000000120049000951020059000244FF46010FA
:10101000CDE9084007956846FFF798FB00B1FEE769
:101020000F20CDE90A054FF48060CDE90C40022184
:101030000AA80E94FFF75EFA00B1FEE7FFF71EFB69
:101040004FF47A71B0FBF1F0FFF763FE0420FFF775
:1010500053FE00221146501EFFF71AFA0FB030BDA2
:101060001448016841F4700101601348016841F0BF
:10107000010101604168114A114041600168104A54
:1010800011400160016821F480210160416821F470
:10109000FE014160C16A21F00F01C162016B094A82
:1010A00011400163002181600249C003803908605A
:1010B0007047000088ED00E0001002400CC07FF88F
:1010C000FFFFF6FECCFC00FF90F82410C90706D005
:1010D00001684A68836A22F400321A434A6090F831
:1010E0002410890706D501684A68C36A22F4803251
:1010F0001A434A6090F82410490706D501684A68E7
:10110000036B22F480221A434A6090F824100907E6
:1011100006D501684A68436B22F400421A434A60CC
:1011200090F82410C90606D501688A68836B22F4FA
:1011300080521A438A6090F82410890606D5016807
:101140008A68C36B22F400521A438A6090F8241014
:10115000490611D501684A68036C22F480121A43CB
:101160004A60016CB1F5801F06D101684A68436C82
:1011700022F4C0021A434A6090F82410090606D5EA
:1011800001684A68806C22F4002202434A6070477A
:10119000F8B500260446C666FFF7FAF8054620684B
:1011A00000686FF07E47000708D52B4600224FF4F9
:1011B00000112046009700F0BFF860B92068006871
:1011C00040070AD52B4600224FF4800120460097A5
:1011D00000F0B2F808B10320F8BD202084F86900BF
:1011E00084F86A0084F868600020F8BD2DE9F041B9
:1011F000044610202369A268E6691A436369002146
:1012000033431A4323680D461E68444F3E4016433D
:101210001E6022685368E66823F4405333435360EA
:10122000236AA2691A4323689E6826F4306616432F
:101230009E603B4B22689A4210D13A4B1B6B13F0D5
:10124000030311D0012B05D0022B05D0032B0CD1A9
:1012500002200AE0042008E0082006E0324B9A420F
:1012600002D0324B9A4200D10020E6694FF400438D
:101270009E4226D109281DD2DFE800F00508121C85
:10128000151C1C1C1800FFF7FFF901E0FFF714FA0A
:101290004100606801EB5001B1FBF0F081B20AE05F
:1012A00023496068F6E7FFF71FFAF1E74FF4803152
:1012B0006068EFE7012521F00F00C1F34201084308
:1012C0001CE0092825D2DFE800F005080B241024D3
:1012D00024241C00FFF7D8F909E0FFF7EDF906E038
:1012E0001449606801EB50010EE0FFF7FDF901467B
:1012F000606801EB5001B1FBF0F080B22168C8607A
:1013000008E0606803EB5001B1FBF0F080B2D06000
:1013100000E001252846BDE8F0810000F369FFEFF9
:1013200000380140001002400044004000480040E6
:101330000024F40000127A002DE9F0419846174687
:101340000E460446069D1DE0681C1BD02DB1FFF71C
:101350001FF8A0EB0800A84214D92068016821F406
:10136000D07101602068816821F001018160202036
:1013700084F8690084F86A00002084F8680003207B
:10138000BDE8F0812068C06936EA000004D0002082
:10139000B842D9D00020F3E70120F9E70FB4054B9C
:1013A00010B503A9044A029800F018F810BC5DF8C3
:1013B00014FB0000311500081000002002E008C8EE
:1013C000121F08C1002AFAD170477047002001E0BF
:1013D00001C1121F002AFBD1704700002DE9FF4F09
:1013E00089B09B460446002506E025280BD05A46C6
:1013F0000B999047641C6D1C20780028F5D10DB026
:101400002846BDE8F08F0027B8460122474900E092
:10141000074314F8013F203B02FA03F00842F7D1DA
:1014200020782E2819D114F8010F47F004072A2834
:101430000ED06FF02F022078A0F1300109290CD8CE
:1014400008EB880102EB410100EB0108641CF2E7A4
:101450000A98641C50F8048B0A9020780028CED09B
:10146000642808D0692806D075281ED05A460B99E2
:1014700090476D1C58E00A994FF00A0901C90A917A
:10148000002802DA40422D2102E0390504D52B2143
:101490008DF82010012103E0F90704D02021F7E79F
:1014A0008A4608AE0DE00021FAE70A994FF00A09D2
:1014B00001C90A91F7E74946FEF782FE303106F886
:1014C000011D0028F7D1ADEB060000F120097807D7
:1014D00001D44FF00108C84502DDA8EB090000E087
:1014E00000208046002706E008A85A46C05D0B99F8
:1014F00090476D1C7F1C5745F6DB04E030205A46B0
:101500000B9990476D1CB8F10001A8F10108F5DCBA
:1015100005E016F8010B5A460B9990476D1CB9F17E
:101520000001A9F10109F4DC641C65E70928010048
:1015300013B54FF6FF73012269460248FFF7CDFC51
:1015400000981CBD3C00002008B5FEF72FFFFFF7F8
:1015500054FD1348416941F480014161416901F43E
:1015600080010091416941F400314161406900F41A
:1015700000300090FFF70CFD0A490A231A4601F1DA
:101580002800FFF737FC07490A23012201F1280050
:10159000FFF7A3FC034904A0FFF700FFECE70000FE
:1015A000001002401400002025640A0D0000000015
:1015B00002030405060708090A0B0C0D0E0F101094
:1015C0000102030405060708090A0B0C0D0E0F1093
:1015D00000000000000000000102030406070809E3
:1015E00000000000010203040816000800000020AB
:1015F00014000000BC1300081C1600081400002092
:101600009C040000CC130008010000001000000042
:0C1610000000000000127A000000000042
:040000050800018965
:00000001FF
