:020000040800F2
:10000000100400209D010008A5010008A7010008B8
:10001000A9010008AB010008AD01000800000000C4
:10002000000000000000000000000000090D0008B2
:10003000B101000800000000070D00080B0D0008CA
:10004000B7010008B7010008B7010008B7010008B0
:10005000B7010008B7010008B7010008B7010008A0
:10006000B7010008B7010008B7010008B701000890
:10007000B7010008B7010008B7010008B701000880
:10008000B7010008B7010008B7010008B701000870
:10009000B7010008B7010008B7010008B701000860
:1000A000B7010008B7010008B7010008B701000850
:1000B000B70100080000000000000000B7010008C0
:1000C000B7010008B7010008B701000800000000F0
:1000D000B7010008B7010008B7010008B701000820
:1000E000B7010008B7010008B701000800000000D0
:1000F0000000000000000000000000000000000000
:10010000000000000000000000000000B70100082F
:100110000000000000000000B7010008000000001F
:1001200000000000000000000000000000000000CF
:1001300000000000000000000000000000000000BF
:10014000B7010008B701000800000000000000002F
:10015000000000000000000000000000000000009F
:10016000B7010008B7010008B7010008B70100088F
:10017000B7010008000000000000000000000000BF
:1001800000000000B7010008DFF80CD000F018F8FC
:1001900000480047010E0008100400200648804770
:1001A00006480047FEE7FEE7FEE7FEE7FEE7FEE75C
:1001B000FEE7FEE7FEE7FEE7790D0008890100088B
:1001C000064C074D06E0E06840F0010394E80700A4
:1001D00098471034AC42F6D3FFF7DAFFB00E0008B0
:1001E000D00E000870B5044600F0D4F80546601C37
:1001F00002D004480078044400F0CCF8401BA04230
:10020000FAD370BD000000202DE9F84FDFF860B18F
:1002100000234FF0010C4FF0030A4FF00F090BF1D0
:10022000040E9DE00CFA03F6344022007ED04C68A8
:10023000022C01D0122C0ED1DC0800EB8408D8F877
:1002400020405D07EF0E09FA07F5AC430D69BD408C
:100250002543C8F8205007685D0091F804800AFA29
:1002600005F408F00308A74308FA05F848EA070868
:10027000C0F800804F68012F05D0022F03D0112F46
:1002800001D0122F11D18768D1F80C80A74308FA4A
:1002900005F848EA0708C0F808804768B7430E79B0
:1002A000C6F300169E403E434660C668A6438C686F
:1002B000AC403443C4604C68E40050D52D4CA56973
:1002C00045F00105A561A46923F0030504F00104CC
:1002D0000094294C2E19B4689D072F0F09FA07F5D1
:1002E000AC43B0F1904F04D0244DA84203D1012576
:1002F0000CE000250AE0224DA84201D1022505E0CC
:10030000204DA84201D1032500E00525BD4025432D
:10031000B560DBF800405D464E689443F60300D5B7
:1003200014432C607546DEF8004000E017E04E688C
:100330009443B60300D514432C600D4D08352C684A
:100340004E689443F60200D514432C60084D0C35DA
:100350002C684E689443B60200D514432C605B1C95
:100360000A681446DA407FF45DAFBDE8F88F0000FC
:100370000004014000100240000001400004004859
:1003800000080048000C00480AB181617047816292
:10039000704700000148806870470000000000209E
:1003A0000248816802781144816070470000002093
:1003B000074810B5016841F010010160032000F00A
:1003C00089F8002000F006F800F024F8002010BDA5
:1003D0000020024070B50D4D04464FF47A71287824
:1003E000B1FBF0F00A490968B1FBF0F000F063FCE2
:1003F00048B9102C07D200222146501E00F04AF8BE
:1004000000206C6070BD012070BD00000000002065
:100410000C0000201E4808B5816941F0010181618E
:10042000816901F001010091C16941F08051C16110
:10043000C06900F080500090072000F04BF80022C7
:1004400011466FF00B0000F025F8002211466FF006
:100450000A0000F01FF8002211466FF0090000F0BA
:1004600019F800221146501F00F014F8002211461E
:10047000101F00F00FF800221146901E00F00AF83D
:100480000022BDE808401146501E00F003B80000ED
:1004900000100240F0B40E4B1B680C46C3F302235D
:1004A000C3F10705042D00D90425191D072901D220
:1004B000002300E0DB1E012606FA05F1491E21405B
:1004C00099409E40761E16403143F0BC00F00BBCB4
:1004D0000CED00E0064900F0070208684FF6FF0344
:1004E000184040EA0220034A1043086070470000A9
:1004F0000CED00E00000FA052DE9F047DFF870810F
:1005000005460E46D8F8000000F00700B0420CD2B5
:10051000D8F8001021F007013143C8F80010D8F8CE
:10052000000000F00700B04277D12878514C8007D6
:1005300005D56068A96820F0F0000843606028785D
:10054000C00759D06968012001290DD0022929D09E
:100550005FF0020393FAA3F2B2FA82F242F02002B1
:10056000520904D0226803E04FF40033F2E7626AD4
:1005700093FAA3F3B3FA83F303F01F039840024204
:100580004BD0606820F0030008436060FFF702FF73
:100590006968074641F2883001290DD00229814659
:1005A00017D025E04FF00073D4E700BFFFF7F2FE4D
:1005B000C11B494501D918E081466068C0F381003C
:1005C0000128F3D118E000BFFFF7E4FEC11B494545
:1005D0000BD86068C0F381000228F5D10CE000BFA1
:1005E000FFF7D8FEC11B494502D90320BDE8F087BB
:1005F000606810F00C0FF3D1D8F80010404601F0FD
:100600000701B1420BD9016821F0070131430160B4
:10061000006800F00700B04201D00120E6E728782A
:10062000400705D56068E96820F4E0600843606031
:100630002878000706D56068296920F4605040EAF0
:10064000C100606000F022F86168F02292FAA2F224
:1006500001F0F001B2FA82F2D140074A515CC84081
:10066000064908600020FFF7B5FE0020BEE7000045
:100670000020024000100240A00E00080C000020E4
:1006800001480068704700000C000020144B10B5B2
:100690005A68144802F00C0104291DD008291BD106
:1006A0004FF4701494FAA4F402F47011B4FA84F4C0
:1006B000E1400D4CDB6A615C0F2494FAA4F403F072
:1006C0000F03B4FA84F4E340074C1034D203E35C24
:1006D00003D5B0FBF3F0484310BD0448484310BDB8
:1006E0000010024000127A00800E000800093D0050
:1006F0002DE9F84F05460078F74EC0074FF001048A
:1007000025D070686704C0F38100012807D07068A5
:10071000C0F3810002281BD17068C00318D597FA76
:10072000A7F0B0FA80F040F02000400901D0306816
:1007300000E0706A97FAA7F1B1FA81F101F01F01A8
:1007400004FA01F1084264D0686800287DD060E0B6
:100750006868B0F5803F0BD010B1B0F5A02F17D06E
:10076000306820F480303060306820F4802002E06F
:10077000306840F480303060F06AA96820F00F00E3
:100780000843F062686828B3FFF704FE80460BE078
:10079000306840F480203060EAE700BFFFF7FAFDE0
:1007A000A0EB0800642871D897FAA7F0B0FA80F09F
:1007B00040F02000400901D0306800E0706A97FAEC
:1007C000A7F1B1FA81F101F01F0104FA01F1084229
:1007D000E4D01EE0FFF7DEFD804605E0FFF7DAFD1E
:1007E000A0EB08006428DED897FAA7F0B0FA80F0F2
:1007F00040F02000400901D0306800E0706A97FAAC
:10080000A7F1B1FA81F101F01F0104FA01F10842E8
:10081000E4D12878DFF8C48280074FF0000A4FF057
:10082000020732D570684FF0F80B10F00C0F07D0AC
:100830007068C0F38100022829D17068C00326D4F3
:1008400097FAA7F0B0FA80F000E08BE040F02000CB
:10085000400901D0306800E0706A97FAA7F1B1FA58
:1008600081F101F01F0104FA01F1084202D0286968
:10087000012877D130689BFAABF26969B2FA82F24B
:1008800020F0F8009140084330605AE064E12869A4
:1008900088B394FAA4F0B0FA80F048F82040FFF74B
:1008A00079FD814606E000BFFFF774FDA0EB09006B
:1008B000022898D897FAA7F0B0FA80F040F020000C
:1008C000400901D0306800E0706A97FAA7F1B1FAE8
:1008D00081F101F01F0104FA01F10842E4D030680F
:1008E0009BFAABF220F0F8016869B2FA82F290400C
:1008F0000143316025E0FFE794FAA4F1B1FA81F1F8
:1009000048F821A0FFF746FD814605E0FFF742FDCC
:10091000A0EB09000228CCD897FAA7F0B0FA80F033
:1009200040F02000400901D0306800E0706A97FA7A
:10093000A7F1B1FA81F101F01F0104FA01F10842B7
:10094000E4D1287800076CD5A869A8B394FAA4F07C
:10095000B0FA80F008EB8000C0F88044FFF71AFD81
:10096000814607E08AE100BFFFF714FDA0EB090014
:1009700002289ED897FAA7F0B0FA80F040F0600005
:10098000B4EB501F01D130680BE097FAA7F0B0FA32
:1009900080F040F06000B7EB501F01D1306A00E0FA
:1009A000706A97FAA7F1B1FA81F101F01F0104FA18
:1009B00001F21042D8D034E0FFE794FAA4F1B1FA82
:1009C00081F108EB8101C1F880A4FFF7E3FC8146C7
:1009D00006E000BFFFF7DEFCA0EB090002289AD872
:1009E00097FAA7F0B0FA80F040F06000B4EB501F27
:1009F00001D130680BE097FAA7F0B0FA80F040F030
:100A00006000B7EB501F01D1306A00E0706A97FABE
:100A1000A7F1B1FA81F101F01F0104FA01F21042CD
:100A2000D8D12878400774D5F0694FF00009C0008C
:100A300009D4F06940F08050F061F0694FF001098D
:100A400000F08050009026480168C90512D4016862
:100A500041F480710160FFF79DFC834606E000BF12
:100A6000FFF798FCA0EB0B00642875D81C480068C1
:100A7000C005F5D5E86801280AD008B1052811D0CD
:100A8000306A20F001003062306A20F0040002E099
:100A9000306A40F001003062E868E0B1FFF77AFCAC
:100AA00083460DE0306A40F004003062F0E700BF9A
:100AB000FFF770FCA0EB0B0141F2883081424BD86C
:100AC00097FAA7F0B0FA80F040F04000B4EB501F66
:100AD00008D1306812E01DE00010024000004242E0
:100AE0000070004097FAA7F0B0FA80F040F04000A4
:100AF000B7EB501F01D1306A00E0706A97FAA7F196
:100B0000B1FA81F101F01F0104FA01F21042CFD0D5
:100B10002EE034E0FFF73EFC834607E0FFF73AFCA7
:100B2000A0EB0B0141F28830814215D897FAA7F06B
:100B3000B0FA80F040F04000B4EB501F01D13068B3
:100B40000CE097FAA7F0B0FA80F040F04000B7EB65
:100B5000501F02D1306A01E083E0706A97FAA7F172
:100B6000B1FA81F101F01F0104FA01F21042D5D16E
:100B7000B9F1000F03D0F06920F08050F061E8690E
:100B800080B37168C1F38101022977D04FF0807181
:100B90004F00022809D091FAA1F0B0FA80F048F88D
:100BA00020A0FFF7F7FB05465EE0894691FAA1F128
:100BB0005046B1FA81F1C24648F82100FFF7EAFB3E
:100BC000804605E0FFF7E6FBA0EB0800022848D8C6
:100BD00097FAA7F0B0FA80F040F02000400902D068
:100BE000306801E056E0706A97FAA7F1B1FA81F136
:100BF00001F01F0104FA01F10842E3D1D5E9081020
:100C00000843716821F474110843706099FAA9F0DF
:100C1000B0FA80F04AF82040FFF7BCFB054604E03C
:100C2000FFF7B8FB401B02281BD897FAA7F0B0FAD1
:100C300080F040F02000400901D0306800E0706A88
:100C400097FAA7F1B1FA81F101F01F0104FA01F15D
:100C50000842E5D01EE000BFFFF79CFB401B0228C6
:100C600002D90320BDE8F88F97FAA7F0B0FA80F018
:100C700040F02000400902D0306801E00CE0706ACA
:100C800097FAA7F1B1FA81F101F01F0104FA01F11D
:100C90000842E1D10020E5E70120E3E74FF0E02141
:100CA0000428086903D020F004000861704740F070
:100CB0000400FAE7704710B5401EB0F1807F01D301
:100CC000012010BD4FF0E02460610F21601700F09B
:100CD0000AF80020A06107202061002010BD10B597
:100CE000FFF7E8FF10BD0907090E002806DA00F03B
:100CF0000F0000F1E02080F8141D704700F1E020A3
:100D000080F8001470477047704710B5FFF748FB34
:100D1000BDE81040FFF7E3BF10B590B0022000908F
:100D20000120049010200024059007946846FFF7E6
:100D3000DFFC00B1FEE70F20CDE90A044FF480602C
:100D4000CDE90C4000210AA80E94FFF7D5FB00B1B5
:100D5000FEE7FFF795FC4FF47A71B0FBF1F0FFF777
:100D6000AAFF0420FFF79AFF00221146501EFFF74A
:100D700091FB10B010BD00001448016841F47001EF
:100D800001601348016841F0010101604168114AA6
:100D9000114041600168104A11400160016821F46E
:100DA00080210160416821F4FE014160C16A21F0A7
:100DB0000F01C162016B094A11400163002181608A
:100DC0000249C003803908607047000088ED00E0E8
:100DD000001002400CC07FF8FFFFF6FECCFC00FFC5
:100DE00002E008C8121F08C1002AFAD170477047F4
:100DF000002001E001C1121F002AFBD17047000052
:100E000086B0FFF7D5FAFFF787FF1B48416941F429
:100E100080014161416901F480010591416941F41A
:100E2000802141614069154D00F480204FF4005449
:100E30000590002221462846FFF7A6FA0120CDE9B9
:100E4000004000200290039069462846FFF7DCF935
:100E50004FF4FA76012221462846FFF795FA3046EC
:100E6000FFF7C0F9002221462846FFF78DFA3046E9
:100E7000FFF7B8F9EEE70000001002400004004858
:100E800002030405060708090A0B0C0D0E0F1010CB
:100E90000102030405060708090A0B0C0D0E0F10CA
:100EA000000000000000000001020304060708091A
:100EB000D00E00080000002010000000E00D000827
:100EC000E00E00081000002000040000F00D0008F3
:100ED00001000000100000000000000000127A0075
:040000050800018965
:00000001FF
